:100442004572726F7200446F20616D3A00204E68EF
:0E04520069657420646F3A002031002030008C
:100256008B358A368937120490E5372FF9E5363E15
:10026600FAE924FFF9EA34FF853538F539893AC3C6
:10027600853983853A82E5379582E5369583503F01
:10028600AB35AA36A937120016FF3395E0FEAB3818
:10029600AA39A93A120016FDAB350537E537AA3655
:1002A6007002053614F9ED12005CAD07AB38E53A7D
:1002B600153AAA3970021539F9ED12005C80B022A0
:10011B007B007A00790E8E2C8F2D8B2E8A2F8930B7
:10012B008E338F34C3EE64809480500BC3E4952DD3
:10013B00F52DE4952CF52CE4F531F532AE2CAF2DE5
:10014B007C007D0A120090ED2430FFAB2EAA2FA964
:10015B00300532E532AC317002053114F5828C83F7
:10016B00EF12006EAE2CAF2D7C007D0A1200908E2C
:10017B002C8F2DD3EF9400EE6480948050BEC3E59A
:10018B003364809480501AAB2EAA2FA9300532E528
:10019B0032AE317002053114F5828E83742D12004C
:1001AB006EAB2EAA2FA930853282853183E41200E3
:0401BB006E02025678
:1004A50012053E1204221205751201BF12038112B4
:0404B50004B980F511
:1001BF0012056512055B1202C68E288F291202C620
:1001CF008E248F251202C68E268F271202C68E22EC
:1001DF008F231202C68E0A8F0BE5292525FFE528EE
:1001EF003524FEE5272FFFE5263EFEE5232FFFE50D
:1001FF00223EFEEF650B7003EE650A600E7BFF7A01
:10020F00047942E4FDFF1203488035AF29AE28126E
:10021F00011B7BFF7A047948E4FDFF1203487B0042
:10022F007A00790E1203B0AF27AE2612011B7BFFA7
:10023F007A04794F1203B07B007A00790E1203B063
:07024F007FE87E03020400BA
:10038100D2B61205051200037508008F091205186F
:10039100C2B612052B7B007A00790EAF09AE0812A6
:0F03A10001217B007A00790EE4FD7F0102034801
:1004B9007BFF30B5067A04795A80047A04795D1293
:0304C90003B0225B
:0300130002030BDA
:10030B00C0E0C0F0C083C082C0D075D000C000C0B8
:10031B0001C002C003C004C005C006C0071204DF41
:10032B00B2B7D007D006D005D004D003D002D0018D
:0D033B00D000D0D0D082D083D0F0D0E032FE
:100460008F80C292C291D2907F017E00120400C29E
:08047000907F057E00020400EC
:100478008F80D292C291D2907F017E00120400C276
:08048800907F057E00020400D4
:1003B0008B3B8A3C893DE4F53EF53FAB3BAA3CA92B
:1003C0003D853F82853E8312002FFF600D12047829
:0B03D000053FE53F70E5053E80E1229F
:100348008F408D418B428A438944EF3395E04F704B
:1003580008E541540F44808013AF40EF3395E0FE29
:10036800EF64014E700AE541540F44C0FF12046067
:09037800AB42AA43A9440203B000
:100422007F147E001204007F381204607F0C1204D5
:10043200607F061204607F011204607F8002046004
:08056500C2B41204DFD2B4227B
:0A055B0020B4FD30B4FD20B4FD22F1
:1002C600E4F547F548F545F54630B4FD1204F2E588
:1002D6004825E030B40DFFE54733F547EF4401F517
:1002E600488007F548E54733F54720B4FD0546E560
:1002F6004670020545C39408E5456480948040C96C
:05030600AE47AF4822E4
:100400008E498F4AE4F54BF54CC3E54C954AE54BD4
:100410009549500D1204CC054CE54C70EC054B8011
:02042000E822D0
:1004CC00758901758CFC758A18D28C308DFDC28CA7
:0304DC00C28D22AC
:1004DF00758901758CB1758AE0D28C308DFDC28C17
:0304EF00C28D2299
:1004F200758901758CFF758AE2D28C308DFDC28CB4
:03050200C28D2285
:10050500758901758CFE758AE8D28C308DFDC28C9B
:03051500C28D2272
:10051800758901758CFF758AD8D28C308DFDC28C97
:03052800C28D225F
:10052B00758901758CDA758A30D28C308DFDC28C51
:03053B00C28D224C
:10053E00C29FD29E758920758DE6D28ED299D29C9D
:01054E00228A
:08056D003099FDC2998F99221B
:1003DB008B4D8A4E894FE4FEAB4DAA4EA94F8E82B0
:1003EB0075830012002FFFFD3395E04D600612055B
:0503FB006D0E80E422FC
:06057C00A298E433FF2207
:05058200C298AF9922B0
:07057500D28AD2AAD2AF2204
:0300000002054FA7
:0C054F00787FE4F6D8FD75814F0204A50A
:10001600BB010689828A83E0225002E722BBFE02E8
:09002600E32289828A83E493221B
:10002F00BB010CE58229F582E5833AF583E0225086
:10003F0006E92582F8E622BBFE06E92582F8E222D0
:0D004F00E58229F582E5833AF583E49322EA
:10005C00BB010689828A83F0225002F722BBFE0183
:02006C00F3227D
:10006E00F8BB010DE58229F582E5833AF583E8F0C8
:10007E00225006E92582C8F622BBFE05E92582C874
:02008E00F2225C
:10009000C2D5EC30E709B2D5E4C39DFDE49CFCEE8B
:1000A00030E715B2D5E4C39FFFE49EFE1200C6C33D
:1000B000E49DFDE49CFC80031200C630D507C3E438
:0600C0009FFFE49EFE22FA
:10049000E4FFFE120016600C0FEF70010E09E97008
:0504A000F20A80EF22CA
:1000C600BC000BBE0029EF8DF084FFADF022E4CC1E
:1000D600F875F008EF2FFFEE33FEEC33FCEE9DECE7
:1000E600984005FCEE9DFE0FD5F0E9E4CEFD22ED2D
:1000F600F8F5F0EE8420D21CFEADF075F008EF2F77
:10010600FFED33FD4007985006D5F0F222C398FD67
:050116000FD5F0EA2204
:10000300C293C295D2952096FDC294AFA0D29422FA
:00000001FF
